{
  "_format": "hh-sol-artifact-1",
  "contractName": "EmpireBoxLicense",
  "sourceName": "contracts/EmpireBoxLicense.sol",
  "abi": [
    {
      "inputs": [
        {
          "internalType": "address",
          "name": "_treasuryWallet",
          "type": "address"
        },
        {
          "internalType": "address",
          "name": "_taxReserveWallet",
          "type": "address"
        }
      ],
      "stateMutability": "nonpayable",
      "type": "constructor"
    },
    {
      "inputs": [
        {
          "internalType": "address",
          "name": "sender",
          "type": "address"
        },
        {
          "internalType": "uint256",
          "name": "tokenId",
          "type": "uint256"
        },
        {
          "internalType": "address",
          "name": "owner",
          "type": "address"
        }
      ],
      "name": "ERC721IncorrectOwner",
      "type": "error"
    },
    {
      "inputs": [
        {
          "internalType": "address",
          "name": "operator",
          "type": "address"
        },
        {
          "internalType": "uint256",
          "name": "tokenId",
          "type": "uint256"
        }
      ],
      "name": "ERC721InsufficientApproval",
      "type": "error"
    },
    {
      "inputs": [
        {
          "internalType": "address",
          "name": "approver",
          "type": "address"
        }
      ],
      "name": "ERC721InvalidApprover",
      "type": "error"
    },
    {
      "inputs": [
        {
          "internalType": "address",
          "name": "operator",
          "type": "address"
        }
      ],
      "name": "ERC721InvalidOperator",
      "type": "error"
    },
    {
      "inputs": [
        {
          "internalType": "address",
          "name": "owner",
          "type": "address"
        }
      ],
      "name": "ERC721InvalidOwner",
      "type": "error"
    },
    {
      "inputs": [
        {
          "internalType": "address",
          "name": "receiver",
          "type": "address"
        }
      ],
      "name": "ERC721InvalidReceiver",
      "type": "error"
    },
    {
      "inputs": [
        {
          "internalType": "address",
          "name": "sender",
          "type": "address"
        }
      ],
      "name": "ERC721InvalidSender",
      "type": "error"
    },
    {
      "inputs": [
        {
          "internalType": "uint256",
          "name": "tokenId",
          "type": "uint256"
        }
      ],
      "name": "ERC721NonexistentToken",
      "type": "error"
    },
    {
      "inputs": [
        {
          "internalType": "address",
          "name": "owner",
          "type": "address"
        }
      ],
      "name": "OwnableInvalidOwner",
      "type": "error"
    },
    {
      "inputs": [
        {
          "internalType": "address",
          "name": "account",
          "type": "address"
        }
      ],
      "name": "OwnableUnauthorizedAccount",
      "type": "error"
    },
    {
      "inputs": [],
      "name": "ReentrancyGuardReentrantCall",
      "type": "error"
    },
    {
      "anonymous": false,
      "inputs": [
        {
          "indexed": true,
          "internalType": "address",
          "name": "owner",
          "type": "address"
        },
        {
          "indexed": true,
          "internalType": "address",
          "name": "approved",
          "type": "address"
        },
        {
          "indexed": true,
          "internalType": "uint256",
          "name": "tokenId",
          "type": "uint256"
        }
      ],
      "name": "Approval",
      "type": "event"
    },
    {
      "anonymous": false,
      "inputs": [
        {
          "indexed": true,
          "internalType": "address",
          "name": "owner",
          "type": "address"
        },
        {
          "indexed": true,
          "internalType": "address",
          "name": "operator",
          "type": "address"
        },
        {
          "indexed": false,
          "internalType": "bool",
          "name": "approved",
          "type": "bool"
        }
      ],
      "name": "ApprovalForAll",
      "type": "event"
    },
    {
      "anonymous": false,
      "inputs": [
        {
          "indexed": false,
          "internalType": "uint256",
          "name": "_fromTokenId",
          "type": "uint256"
        },
        {
          "indexed": false,
          "internalType": "uint256",
          "name": "_toTokenId",
          "type": "uint256"
        }
      ],
      "name": "BatchMetadataUpdate",
      "type": "event"
    },
    {
      "anonymous": false,
      "inputs": [
        {
          "indexed": false,
          "internalType": "uint256",
          "name": "toTreasury",
          "type": "uint256"
        },
        {
          "indexed": false,
          "internalType": "uint256",
          "name": "toTaxReserve",
          "type": "uint256"
        }
      ],
      "name": "FeeDistributed",
      "type": "event"
    },
    {
      "anonymous": false,
      "inputs": [
        {
          "indexed": true,
          "internalType": "uint256",
          "name": "tokenId",
          "type": "uint256"
        },
        {
          "indexed": false,
          "internalType": "string",
          "name": "hardwareId",
          "type": "string"
        }
      ],
      "name": "LicenseActivated",
      "type": "event"
    },
    {
      "anonymous": false,
      "inputs": [
        {
          "indexed": true,
          "internalType": "address",
          "name": "buyer",
          "type": "address"
        },
        {
          "indexed": true,
          "internalType": "uint256",
          "name": "tokenId",
          "type": "uint256"
        },
        {
          "indexed": false,
          "internalType": "enum EmpireBoxLicense.ProductTier",
          "name": "tier",
          "type": "uint8"
        },
        {
          "indexed": false,
          "internalType": "uint256",
          "name": "price",
          "type": "uint256"
        }
      ],
      "name": "LicensePurchased",
      "type": "event"
    },
    {
      "anonymous": false,
      "inputs": [
        {
          "indexed": true,
          "internalType": "uint256",
          "name": "tokenId",
          "type": "uint256"
        },
        {
          "indexed": false,
          "internalType": "uint256",
          "name": "newExpiration",
          "type": "uint256"
        }
      ],
      "name": "LicenseRenewed",
      "type": "event"
    },
    {
      "anonymous": false,
      "inputs": [
        {
          "indexed": false,
          "internalType": "uint256",
          "name": "_tokenId",
          "type": "uint256"
        }
      ],
      "name": "MetadataUpdate",
      "type": "event"
    },
    {
      "anonymous": false,
      "inputs": [
        {
          "indexed": true,
          "internalType": "address",
          "name": "previousOwner",
          "type": "address"
        },
        {
          "indexed": true,
          "internalType": "address",
          "name": "newOwner",
          "type": "address"
        }
      ],
      "name": "OwnershipTransferred",
      "type": "event"
    },
    {
      "anonymous": false,
      "inputs": [
        {
          "indexed": true,
          "internalType": "address",
          "name": "from",
          "type": "address"
        },
        {
          "indexed": true,
          "internalType": "address",
          "name": "to",
          "type": "address"
        },
        {
          "indexed": true,
          "internalType": "uint256",
          "name": "tokenId",
          "type": "uint256"
        }
      ],
      "name": "Transfer",
      "type": "event"
    },
    {
      "inputs": [],
      "name": "BPS_DENOMINATOR",
      "outputs": [
        {
          "internalType": "uint256",
          "name": "",
          "type": "uint256"
        }
      ],
      "stateMutability": "view",
      "type": "function"
    },
    {
      "inputs": [],
      "name": "TRANSACTION_FEE_BPS",
      "outputs": [
        {
          "internalType": "uint256",
          "name": "",
          "type": "uint256"
        }
      ],
      "stateMutability": "view",
      "type": "function"
    },
    {
      "inputs": [
        {
          "internalType": "uint256",
          "name": "tokenId",
          "type": "uint256"
        },
        {
          "internalType": "string",
          "name": "hardwareId",
          "type": "string"
        }
      ],
      "name": "activateLicense",
      "outputs": [],
      "stateMutability": "nonpayable",
      "type": "function"
    },
    {
      "inputs": [
        {
          "internalType": "address",
          "name": "to",
          "type": "address"
        },
        {
          "internalType": "uint256",
          "name": "tokenId",
          "type": "uint256"
        }
      ],
      "name": "approve",
      "outputs": [],
      "stateMutability": "nonpayable",
      "type": "function"
    },
    {
      "inputs": [
        {
          "internalType": "address",
          "name": "owner",
          "type": "address"
        }
      ],
      "name": "balanceOf",
      "outputs": [
        {
          "internalType": "uint256",
          "name": "",
          "type": "uint256"
        }
      ],
      "stateMutability": "view",
      "type": "function"
    },
    {
      "inputs": [
        {
          "internalType": "uint256",
          "name": "tokenId",
          "type": "uint256"
        }
      ],
      "name": "getApproved",
      "outputs": [
        {
          "internalType": "address",
          "name": "",
          "type": "address"
        }
      ],
      "stateMutability": "view",
      "type": "function"
    },
    {
      "inputs": [
        {
          "internalType": "address",
          "name": "owner",
          "type": "address"
        },
        {
          "internalType": "address",
          "name": "operator",
          "type": "address"
        }
      ],
      "name": "isApprovedForAll",
      "outputs": [
        {
          "internalType": "bool",
          "name": "",
          "type": "bool"
        }
      ],
      "stateMutability": "view",
      "type": "function"
    },
    {
      "inputs": [
        {
          "internalType": "uint256",
          "name": "tokenId",
          "type": "uint256"
        }
      ],
      "name": "isLicenseValid",
      "outputs": [
        {
          "internalType": "bool",
          "name": "",
          "type": "bool"
        }
      ],
      "stateMutability": "view",
      "type": "function"
    },
    {
      "inputs": [
        {
          "internalType": "uint256",
          "name": "",
          "type": "uint256"
        }
      ],
      "name": "licenses",
      "outputs": [
        {
          "internalType": "enum EmpireBoxLicense.ProductTier",
          "name": "tier",
          "type": "uint8"
        },
        {
          "internalType": "enum EmpireBoxLicense.LicenseType",
          "name": "licenseType",
          "type": "uint8"
        },
        {
          "internalType": "uint256",
          "name": "purchaseDate",
          "type": "uint256"
        },
        {
          "internalType": "uint256",
          "name": "expirationDate",
          "type": "uint256"
        },
        {
          "internalType": "bool",
          "name": "isActive",
          "type": "bool"
        },
        {
          "internalType": "string",
          "name": "hardwareId",
          "type": "string"
        }
      ],
      "stateMutability": "view",
      "type": "function"
    },
    {
      "inputs": [],
      "name": "name",
      "outputs": [
        {
          "internalType": "string",
          "name": "",
          "type": "string"
        }
      ],
      "stateMutability": "view",
      "type": "function"
    },
    {
      "inputs": [],
      "name": "owner",
      "outputs": [
        {
          "internalType": "address",
          "name": "",
          "type": "address"
        }
      ],
      "stateMutability": "view",
      "type": "function"
    },
    {
      "inputs": [
        {
          "internalType": "uint256",
          "name": "tokenId",
          "type": "uint256"
        }
      ],
      "name": "ownerOf",
      "outputs": [
        {
          "internalType": "address",
          "name": "",
          "type": "address"
        }
      ],
      "stateMutability": "view",
      "type": "function"
    },
    {
      "inputs": [
        {
          "internalType": "enum EmpireBoxLicense.ProductTier",
          "name": "tier",
          "type": "uint8"
        },
        {
          "internalType": "enum EmpireBoxLicense.LicenseType",
          "name": "licenseType",
          "type": "uint8"
        }
      ],
      "name": "purchaseLicense",
      "outputs": [
        {
          "internalType": "uint256",
          "name": "",
          "type": "uint256"
        }
      ],
      "stateMutability": "payable",
      "type": "function"
    },
    {
      "inputs": [
        {
          "internalType": "uint256",
          "name": "tokenId",
          "type": "uint256"
        }
      ],
      "name": "renewLicense",
      "outputs": [],
      "stateMutability": "payable",
      "type": "function"
    },
    {
      "inputs": [],
      "name": "renounceOwnership",
      "outputs": [],
      "stateMutability": "nonpayable",
      "type": "function"
    },
    {
      "inputs": [
        {
          "internalType": "address",
          "name": "from",
          "type": "address"
        },
        {
          "internalType": "address",
          "name": "to",
          "type": "address"
        },
        {
          "internalType": "uint256",
          "name": "tokenId",
          "type": "uint256"
        }
      ],
      "name": "safeTransferFrom",
      "outputs": [],
      "stateMutability": "nonpayable",
      "type": "function"
    },
    {
      "inputs": [
        {
          "internalType": "address",
          "name": "from",
          "type": "address"
        },
        {
          "internalType": "address",
          "name": "to",
          "type": "address"
        },
        {
          "internalType": "uint256",
          "name": "tokenId",
          "type": "uint256"
        },
        {
          "internalType": "bytes",
          "name": "data",
          "type": "bytes"
        }
      ],
      "name": "safeTransferFrom",
      "outputs": [],
      "stateMutability": "nonpayable",
      "type": "function"
    },
    {
      "inputs": [
        {
          "internalType": "address",
          "name": "operator",
          "type": "address"
        },
        {
          "internalType": "bool",
          "name": "approved",
          "type": "bool"
        }
      ],
      "name": "setApprovalForAll",
      "outputs": [],
      "stateMutability": "nonpayable",
      "type": "function"
    },
    {
      "inputs": [
        {
          "internalType": "uint256",
          "name": "_taxReserveBps",
          "type": "uint256"
        }
      ],
      "name": "setTaxReserveBps",
      "outputs": [],
      "stateMutability": "nonpayable",
      "type": "function"
    },
    {
      "inputs": [
        {
          "internalType": "address",
          "name": "_wallet",
          "type": "address"
        }
      ],
      "name": "setTaxReserveWallet",
      "outputs": [],
      "stateMutability": "nonpayable",
      "type": "function"
    },
    {
      "inputs": [
        {
          "internalType": "enum EmpireBoxLicense.ProductTier",
          "name": "tier",
          "type": "uint8"
        },
        {
          "internalType": "uint256",
          "name": "priceUSD",
          "type": "uint256"
        }
      ],
      "name": "setTierPrice",
      "outputs": [],
      "stateMutability": "nonpayable",
      "type": "function"
    },
    {
      "inputs": [
        {
          "internalType": "address",
          "name": "_wallet",
          "type": "address"
        }
      ],
      "name": "setTreasuryWallet",
      "outputs": [],
      "stateMutability": "nonpayable",
      "type": "function"
    },
    {
      "inputs": [
        {
          "internalType": "bytes4",
          "name": "interfaceId",
          "type": "bytes4"
        }
      ],
      "name": "supportsInterface",
      "outputs": [
        {
          "internalType": "bool",
          "name": "",
          "type": "bool"
        }
      ],
      "stateMutability": "view",
      "type": "function"
    },
    {
      "inputs": [],
      "name": "symbol",
      "outputs": [
        {
          "internalType": "string",
          "name": "",
          "type": "string"
        }
      ],
      "stateMutability": "view",
      "type": "function"
    },
    {
      "inputs": [],
      "name": "taxReserveBps",
      "outputs": [
        {
          "internalType": "uint256",
          "name": "",
          "type": "uint256"
        }
      ],
      "stateMutability": "view",
      "type": "function"
    },
    {
      "inputs": [],
      "name": "taxReserveWallet",
      "outputs": [
        {
          "internalType": "address",
          "name": "",
          "type": "address"
        }
      ],
      "stateMutability": "view",
      "type": "function"
    },
    {
      "inputs": [
        {
          "internalType": "enum EmpireBoxLicense.ProductTier",
          "name": "",
          "type": "uint8"
        }
      ],
      "name": "tierPricesUSD",
      "outputs": [
        {
          "internalType": "uint256",
          "name": "",
          "type": "uint256"
        }
      ],
      "stateMutability": "view",
      "type": "function"
    },
    {
      "inputs": [
        {
          "internalType": "uint256",
          "name": "tokenId",
          "type": "uint256"
        }
      ],
      "name": "tokenURI",
      "outputs": [
        {
          "internalType": "string",
          "name": "",
          "type": "string"
        }
      ],
      "stateMutability": "view",
      "type": "function"
    },
    {
      "inputs": [
        {
          "internalType": "address",
          "name": "from",
          "type": "address"
        },
        {
          "internalType": "address",
          "name": "to",
          "type": "address"
        },
        {
          "internalType": "uint256",
          "name": "tokenId",
          "type": "uint256"
        }
      ],
      "name": "transferFrom",
      "outputs": [],
      "stateMutability": "nonpayable",
      "type": "function"
    },
    {
      "inputs": [
        {
          "internalType": "address",
          "name": "newOwner",
          "type": "address"
        }
      ],
      "name": "transferOwnership",
      "outputs": [],
      "stateMutability": "nonpayable",
      "type": "function"
    },
    {
      "inputs": [],
      "name": "treasuryWallet",
      "outputs": [
        {
          "internalType": "address",
          "name": "",
          "type": "address"
        }
      ],
      "stateMutability": "view",
      "type": "function"
    }
  ],
  "bytecode": "0x60806040526109c4600a553480156200001757600080fd5b50604051620045523803806200455283398181016040528101906200003d919062000472565b336040518060400160405280601181526020017f456d70697265426f78204c6963656e73650000000000000000000000000000008152506040518060400160405280600681526020017f454d5049524500000000000000000000000000000000000000000000000000008152508160009081620000bb919062000733565b508060019081620000cd919062000733565b505050600073ffffffffffffffffffffffffffffffffffffffff168173ffffffffffffffffffffffffffffffffffffffff1603620001455760006040517f1e4fbdf70000000000000000000000000000000000000000000000000000000081526004016200013c91906200082b565b60405180910390fd5b62000156816200034260201b60201c565b50600160088190555081600b60006101000a81548173ffffffffffffffffffffffffffffffffffffffff021916908373ffffffffffffffffffffffffffffffffffffffff16021790555080600c60006101000a81548173ffffffffffffffffffffffffffffffffffffffff021916908373ffffffffffffffffffffffffffffffffffffffff160217905550620186a0600d6000806004811115620001ff57620001fe62000848565b5b600481111562000214576200021362000848565b5b81526020019081526020016000208190555061c350600d60006001600481111562000244576200024362000848565b5b600481111562000259576200025862000848565b5b815260200190815260200160002081905550611324600d60006002600481111562000289576200028862000848565b5b60048111156200029e576200029d62000848565b5b8152602001908152602001600020819055506103e7600d600060036004811115620002ce57620002cd62000848565b5b6004811115620002e357620002e262000848565b5b8152602001908152602001600020819055506207a120600d600060048081111562000313576200031262000848565b5b600481111562000328576200032762000848565b5b815260200190815260200160002081905550505062000877565b6000600760009054906101000a900473ffffffffffffffffffffffffffffffffffffffff16905081600760006101000a81548173ffffffffffffffffffffffffffffffffffffffff021916908373ffffffffffffffffffffffffffffffffffffffff1602179055508173ffffffffffffffffffffffffffffffffffffffff168173ffffffffffffffffffffffffffffffffffffffff167f8be0079c531659141344cd1fd0a4f28419497f9722a3daafe3b4186f6b6457e060405160405180910390a35050565b600080fd5b600073ffffffffffffffffffffffffffffffffffffffff82169050919050565b60006200043a826200040d565b9050919050565b6200044c816200042d565b81146200045857600080fd5b50565b6000815190506200046c8162000441565b92915050565b600080604083850312156200048c576200048b62000408565b5b60006200049c858286016200045b565b9250506020620004af858286016200045b565b9150509250929050565b600081519050919050565b7f4e487b7100000000000000000000000000000000000000000000000000000000600052604160045260246000fd5b7f4e487b7100000000000000000000000000000000000000000000000000000000600052602260045260246000fd5b600060028204905060018216806200053b57607f821691505b602082108103620005515762000550620004f3565b5b50919050565b60008190508160005260206000209050919050565b60006020601f8301049050919050565b600082821b905092915050565b600060088302620005bb7fffffffffffffffffffffffffffffffffffffffffffffffffffffffffffffffff826200057c565b620005c786836200057c565b95508019841693508086168417925050509392505050565b6000819050919050565b6000819050919050565b6000620006146200060e6200060884620005df565b620005e9565b620005df565b9050919050565b6000819050919050565b6200063083620005f3565b620006486200063f826200061b565b84845462000589565b825550505050565b600090565b6200065f62000650565b6200066c81848462000625565b505050565b5b8181101562000694576200068860008262000655565b60018101905062000672565b5050565b601f821115620006e357620006ad8162000557565b620006b8846200056c565b81016020851015620006c8578190505b620006e0620006d7856200056c565b83018262000671565b50505b505050565b600082821c905092915050565b60006200070860001984600802620006e8565b1980831691505092915050565b6000620007238383620006f5565b9150826002028217905092915050565b6200073e82620004b9565b67ffffffffffffffff8111156200075a5762000759620004c4565b5b62000766825462000522565b6200077382828562000698565b600060209050601f831160018114620007ab576000841562000796578287015190505b620007a2858262000715565b86555062000812565b601f198416620007bb8662000557565b60005b82811015620007e557848901518255600182019150602085019450602081019050620007be565b8683101562000805578489015162000801601f891682620006f5565b8355505b6001600288020188555050505b505050505050565b62000825816200042d565b82525050565b60006020820190506200084260008301846200081a565b92915050565b7f4e487b7100000000000000000000000000000000000000000000000000000000600052602160045260246000fd5b613ccb80620008876000396000f3fe6080604052600436106101d85760003560e01c80635e75202711610102578063a8602fea11610095578063d8ad258811610064578063d8ad2588146106cb578063e1a45218146106f4578063e985e9c51461071f578063f2fde38b1461075c576101d8565b8063a8602fea14610611578063a86d590b1461063a578063b88d4fde14610665578063c87b56dd1461068e576101d8565b80638da5cb5b116100d15780638da5cb5b1461055557806395d89b41146105805780639f7fc6d3146105ab578063a22cb465146105e8576101d8565b80635e752027146104a85780636352211e146104c457806370a0823114610501578063715018a61461053e576101d8565b806337fd9ed31161017a5780634a5c6f8c116101495780634a5c6f8c146103e95780634bd8dc34146104125780635135aaec1461044f57806357285b2b14610478576101d8565b806337fd9ed31461034157806341a16fe41461036c57806342842e0e146103955780634626402b146103be576101d8565b8063081812fc116101b6578063081812fc14610270578063095ea7b3146102ad57806323b872dd146102d657806333790845146102ff576101d8565b806301ffc9a7146101dd57806305223c481461021a57806306fdde0314610245575b600080fd5b3480156101e957600080fd5b5061020460048036038101906101ff91906129af565b610785565b60405161021191906129f7565b60405180910390f35b34801561022657600080fd5b5061022f610797565b60405161023c9190612a2b565b60405180910390f35b34801561025157600080fd5b5061025a61079d565b6040516102679190612ad6565b60405180910390f35b34801561027c57600080fd5b5061029760048036038101906102929190612b24565b61082f565b6040516102a49190612b92565b60405180910390f35b3480156102b957600080fd5b506102d460048036038101906102cf9190612bd9565b61084b565b005b3480156102e257600080fd5b506102fd60048036038101906102f89190612c19565b610861565b005b34801561030b57600080fd5b5061032660048036038101906103219190612b24565b610963565b60405161033896959493929190612d2b565b60405180910390f35b34801561034d57600080fd5b50610356610a4e565b6040516103639190612a2b565b60405180910390f35b34801561037857600080fd5b50610393600480360381019061038e9190612d93565b610a54565b005b3480156103a157600080fd5b506103bc60048036038101906103b79190612c19565b610aa0565b005b3480156103ca57600080fd5b506103d3610ac0565b6040516103e09190612b92565b60405180910390f35b3480156103f557600080fd5b50610410600480360381019061040b9190612de5565b610ae6565b005b34801561041e57600080fd5b5061043960048036038101906104349190612e25565b610b2e565b6040516104469190612a2b565b60405180910390f35b34801561045b57600080fd5b5061047660048036038101906104719190612b24565b610b46565b005b610492600480360381019061048d9190612e77565b610b9d565b60405161049f9190612a2b565b60405180910390f35b6104c260048036038101906104bd9190612b24565b610de2565b005b3480156104d057600080fd5b506104eb60048036038101906104e69190612b24565b610ff8565b6040516104f89190612b92565b60405180910390f35b34801561050d57600080fd5b5061052860048036038101906105239190612d93565b61100a565b6040516105359190612a2b565b60405180910390f35b34801561054a57600080fd5b506105536110c4565b005b34801561056157600080fd5b5061056a6110d8565b6040516105779190612b92565b60405180910390f35b34801561058c57600080fd5b50610595611102565b6040516105a29190612ad6565b60405180910390f35b3480156105b757600080fd5b506105d260048036038101906105cd9190612b24565b611194565b6040516105df91906129f7565b60405180910390f35b3480156105f457600080fd5b5061060f600480360381019061060a9190612ee3565b611240565b005b34801561061d57600080fd5b5061063860048036038101906106339190612d93565b611256565b005b34801561064657600080fd5b5061064f6112a2565b60405161065c9190612b92565b60405180910390f35b34801561067157600080fd5b5061068c60048036038101906106879190613058565b6112c8565b005b34801561069a57600080fd5b506106b560048036038101906106b09190612b24565b6112ed565b6040516106c29190612ad6565b60405180910390f35b3480156106d757600080fd5b506106f260048036038101906106ed919061313b565b6112ff565b005b34801561070057600080fd5b5061070961143f565b6040516107169190612a2b565b60405180910390f35b34801561072b57600080fd5b506107466004803603810190610741919061319b565b611445565b60405161075391906129f7565b60405180910390f35b34801561076857600080fd5b50610783600480360381019061077e9190612d93565b6114d9565b005b60006107908261155f565b9050919050565b600a5481565b6060600080546107ac9061320a565b80601f01602080910402602001604051908101604052809291908181526020018280546107d89061320a565b80156108255780601f106107fa57610100808354040283529160200191610825565b820191906000526020600020905b81548152906001019060200180831161080857829003601f168201915b5050505050905090565b600061083a826115c0565b5061084482611648565b9050919050565b61085d8282610858611685565b61168d565b5050565b600073ffffffffffffffffffffffffffffffffffffffff168273ffffffffffffffffffffffffffffffffffffffff16036108d35760006040517f64a0ae920000000000000000000000000000000000000000000000000000000081526004016108ca9190612b92565b60405180910390fd5b60006108e783836108e2611685565b61169f565b90508373ffffffffffffffffffffffffffffffffffffffff168173ffffffffffffffffffffffffffffffffffffffff161461095d578382826040517f64283d7b0000000000000000000000000000000000000000000000000000000081526004016109549392919061323b565b60405180910390fd5b50505050565b600e6020528060005260406000206000915090508060000160009054906101000a900460ff16908060000160019054906101000a900460ff16908060010154908060020154908060030160009054906101000a900460ff16908060040180546109cb9061320a565b80601f01602080910402602001604051908101604052809291908181526020018280546109f79061320a565b8015610a445780601f10610a1957610100808354040283529160200191610a44565b820191906000526020600020905b815481529060010190602001808311610a2757829003601f168201915b5050505050905086565b61012c81565b610a5c6118b9565b80600c60006101000a81548173ffffffffffffffffffffffffffffffffffffffff021916908373ffffffffffffffffffffffffffffffffffffffff16021790555050565b610abb838383604051806020016040528060008152506112c8565b505050565b600b60009054906101000a900473ffffffffffffffffffffffffffffffffffffffff1681565b610aee6118b9565b80600d6000846004811115610b0657610b05612c6c565b5b6004811115610b1857610b17612c6c565b5b8152602001908152602001600020819055505050565b600d6020528060005260406000206000915090505481565b610b4e6118b9565b611388811115610b93576040517f08c379a0000000000000000000000000000000000000000000000000000000008152600401610b8a906132be565b60405180910390fd5b80600a8190555050565b6000610ba7611940565b60003411610bea576040517f08c379a0000000000000000000000000000000000000000000000000000000008152600401610be19061332a565b60405180910390fd5b60096000815480929190610bfd90613379565b9190505550600060095490506000600180811115610c1e57610c1d612c6c565b5b846001811115610c3157610c30612c6c565b5b03610c485762278d0042610c4591906133c1565b90505b6040518060c00160405280866004811115610c6657610c65612c6c565b5b8152602001856001811115610c7e57610c7d612c6c565b5b815260200142815260200182815260200160011515815260200160405180602001604052806000815250815250600e600084815260200190815260200160002060008201518160000160006101000a81548160ff02191690836004811115610ce957610ce8612c6c565b5b021790555060208201518160000160016101000a81548160ff02191690836001811115610d1957610d18612c6c565b5b0217905550604082015181600101556060820151816002015560808201518160030160006101000a81548160ff02191690831515021790555060a0820151816004019081610d6791906135a1565b50905050610d753383611986565b610d7e346119a4565b813373ffffffffffffffffffffffffffffffffffffffff167f9115ce5c9eb8004df9e3be920093cb307511f2c54d3a77564806c12cb74d80a28734604051610dc7929190613673565b60405180910390a38192505050610ddc611baf565b92915050565b610dea611940565b3373ffffffffffffffffffffffffffffffffffffffff16610e0a82610ff8565b73ffffffffffffffffffffffffffffffffffffffff1614610e60576040517f08c379a0000000000000000000000000000000000000000000000000000000008152600401610e57906136e8565b60405180910390fd5b600180811115610e7357610e72612c6c565b5b600e600083815260200190815260200160002060000160019054906101000a900460ff166001811115610ea957610ea8612c6c565b5b14610ee9576040517f08c379a0000000000000000000000000000000000000000000000000000000008152600401610ee090613754565b60405180910390fd5b60003411610f2c576040517f08c379a0000000000000000000000000000000000000000000000000000000008152600401610f239061332a565b60405180910390fd5b6000600e600083815260200190815260200160002090504281600201541015610f6b5762278d0042610f5e91906133c1565b8160020181905550610f8a565b62278d00816002016000828254610f8291906133c1565b925050819055505b60018160030160006101000a81548160ff021916908315150217905550610fb0346119a4565b817f641f1db3da55b0df612710b4b1d9cceba57bd7a3a2b900d7265b08c8c7068a2e8260020154604051610fe49190612a2b565b60405180910390a250610ff5611baf565b50565b6000611003826115c0565b9050919050565b60008073ffffffffffffffffffffffffffffffffffffffff168273ffffffffffffffffffffffffffffffffffffffff160361107d5760006040517f89c62b640000000000000000000000000000000000000000000000000000000081526004016110749190612b92565b60405180910390fd5b600360008373ffffffffffffffffffffffffffffffffffffffff1673ffffffffffffffffffffffffffffffffffffffff168152602001908152602001600020549050919050565b6110cc6118b9565b6110d66000611bb9565b565b6000600760009054906101000a900473ffffffffffffffffffffffffffffffffffffffff16905090565b6060600180546111119061320a565b80601f016020809104026020016040519081016040528092919081815260200182805461113d9061320a565b801561118a5780601f1061115f5761010080835404028352916020019161118a565b820191906000526020600020905b81548152906001019060200180831161116d57829003601f168201915b5050505050905090565b6000600e600083815260200190815260200160002060030160009054906101000a900460ff166111c7576000905061123b565b6001808111156111da576111d9612c6c565b5b600e600084815260200190815260200160002060000160019054906101000a900460ff1660018111156112105761120f612c6c565b5b036112365742600e6000848152602001908152602001600020600201541015905061123b565b600190505b919050565b61125261124b611685565b8383611c7f565b5050565b61125e6118b9565b80600b60006101000a81548173ffffffffffffffffffffffffffffffffffffffff021916908373ffffffffffffffffffffffffffffffffffffffff16021790555050565b600c60009054906101000a900473ffffffffffffffffffffffffffffffffffffffff1681565b6112d3848484610861565b6112e76112de611685565b85858585611dee565b50505050565b60606112f882611f9f565b9050919050565b3373ffffffffffffffffffffffffffffffffffffffff1661131f84610ff8565b73ffffffffffffffffffffffffffffffffffffffff1614611375576040517f08c379a000000000000000000000000000000000000000000000000000000000815260040161136c906136e8565b60405180910390fd5b6000600e600085815260200190815260200160002060040180546113989061320a565b9050146113da576040517f08c379a00000000000000000000000000000000000000000000000000000000081526004016113d1906137c0565b60405180910390fd5b8181600e600086815260200190815260200160002060040191826113ff9291906137eb565b50827f09895651eca556911e7fdf70affbdd561780bb055d9d335f514c89e19574e56083836040516114329291906138e8565b60405180910390a2505050565b61271081565b6000600560008473ffffffffffffffffffffffffffffffffffffffff1673ffffffffffffffffffffffffffffffffffffffff16815260200190815260200160002060008373ffffffffffffffffffffffffffffffffffffffff1673ffffffffffffffffffffffffffffffffffffffff16815260200190815260200160002060009054906101000a900460ff16905092915050565b6114e16118b9565b600073ffffffffffffffffffffffffffffffffffffffff168173ffffffffffffffffffffffffffffffffffffffff16036115535760006040517f1e4fbdf700000000000000000000000000000000000000000000000000000000815260040161154a9190612b92565b60405180910390fd5b61155c81611bb9565b50565b6000634906490660e01b7bffffffffffffffffffffffffffffffffffffffffffffffffffffffff1916827bffffffffffffffffffffffffffffffffffffffffffffffffffffffff191614806115b957506115b8826120b2565b5b9050919050565b6000806115cc83612194565b9050600073ffffffffffffffffffffffffffffffffffffffff168173ffffffffffffffffffffffffffffffffffffffff160361163f57826040517f7e2732890000000000000000000000000000000000000000000000000000000081526004016116369190612a2b565b60405180910390fd5b80915050919050565b60006004600083815260200190815260200160002060009054906101000a900473ffffffffffffffffffffffffffffffffffffffff169050919050565b600033905090565b61169a83838360016121d1565b505050565b6000806116ab84612194565b9050600073ffffffffffffffffffffffffffffffffffffffff168373ffffffffffffffffffffffffffffffffffffffff16146116ed576116ec818486612396565b5b600073ffffffffffffffffffffffffffffffffffffffff168173ffffffffffffffffffffffffffffffffffffffff161461177e5761172f6000856000806121d1565b6001600360008373ffffffffffffffffffffffffffffffffffffffff1673ffffffffffffffffffffffffffffffffffffffff168152602001908152602001600020600082825403925050819055505b600073ffffffffffffffffffffffffffffffffffffffff168573ffffffffffffffffffffffffffffffffffffffff1614611801576001600360008773ffffffffffffffffffffffffffffffffffffffff1673ffffffffffffffffffffffffffffffffffffffff168152602001908152602001600020600082825401925050819055505b846002600086815260200190815260200160002060006101000a81548173ffffffffffffffffffffffffffffffffffffffff021916908373ffffffffffffffffffffffffffffffffffffffff160217905550838573ffffffffffffffffffffffffffffffffffffffff168273ffffffffffffffffffffffffffffffffffffffff167fddf252ad1be2c89b69c2b068fc378daa952ba7f163c4a11628f55a4df523b3ef60405160405180910390a4809150509392505050565b6118c1611685565b73ffffffffffffffffffffffffffffffffffffffff166118df6110d8565b73ffffffffffffffffffffffffffffffffffffffff161461193e57611902611685565b6040517f118cdaa70000000000000000000000000000000000000000000000000000000081526004016119359190612b92565b60405180910390fd5b565b60026008540361197c576040517f3ee5aeb500000000000000000000000000000000000000000000000000000000815260040160405180910390fd5b6002600881905550565b6119a082826040518060200160405280600081525061245a565b5050565b6000612710600a54836119b7919061390c565b6119c1919061397d565b9050600081836119d191906139ae565b90506000600b60009054906101000a900473ffffffffffffffffffffffffffffffffffffffff1673ffffffffffffffffffffffffffffffffffffffff1682604051611a1b90613a13565b60006040518083038185875af1925050503d8060008114611a58576040519150601f19603f3d011682016040523d82523d6000602084013e611a5d565b606091505b5050905080611aa1576040517f08c379a0000000000000000000000000000000000000000000000000000000008152600401611a9890613a74565b60405180910390fd5b6000600c60009054906101000a900473ffffffffffffffffffffffffffffffffffffffff1673ffffffffffffffffffffffffffffffffffffffff1684604051611ae990613a13565b60006040518083038185875af1925050503d8060008114611b26576040519150601f19603f3d011682016040523d82523d6000602084013e611b2b565b606091505b5050905080611b6f576040517f08c379a0000000000000000000000000000000000000000000000000000000008152600401611b6690613ae0565b60405180910390fd5b7f61930a6c1553eab59d5766da6e1bab8eba982aec848ae7683452f4a6423b6e4a8385604051611ba0929190613b00565b60405180910390a15050505050565b6001600881905550565b6000600760009054906101000a900473ffffffffffffffffffffffffffffffffffffffff16905081600760006101000a81548173ffffffffffffffffffffffffffffffffffffffff021916908373ffffffffffffffffffffffffffffffffffffffff1602179055508173ffffffffffffffffffffffffffffffffffffffff168173ffffffffffffffffffffffffffffffffffffffff167f8be0079c531659141344cd1fd0a4f28419497f9722a3daafe3b4186f6b6457e060405160405180910390a35050565b600073ffffffffffffffffffffffffffffffffffffffff168273ffffffffffffffffffffffffffffffffffffffff1603611cf057816040517f5b08ba18000000000000000000000000000000000000000000000000000000008152600401611ce79190612b92565b60405180910390fd5b80600560008573ffffffffffffffffffffffffffffffffffffffff1673ffffffffffffffffffffffffffffffffffffffff16815260200190815260200160002060008473ffffffffffffffffffffffffffffffffffffffff1673ffffffffffffffffffffffffffffffffffffffff16815260200190815260200160002060006101000a81548160ff0219169083151502179055508173ffffffffffffffffffffffffffffffffffffffff168373ffffffffffffffffffffffffffffffffffffffff167f17307eab39ab6107e8899845ad3d59bd9653f200f220920489ca2b5937696c3183604051611de191906129f7565b60405180910390a3505050565b60008373ffffffffffffffffffffffffffffffffffffffff163b1115611f98578273ffffffffffffffffffffffffffffffffffffffff1663150b7a02868685856040518563ffffffff1660e01b8152600401611e4d9493929190613b7e565b6020604051808303816000875af1925050508015611e8957506040513d601f19601f82011682018060405250810190611e869190613bdf565b60015b611f0d573d8060008114611eb9576040519150601f19603f3d011682016040523d82523d6000602084013e611ebe565b606091505b506000815103611f0557836040517f64a0ae92000000000000000000000000000000000000000000000000000000008152600401611efc9190612b92565b60405180910390fd5b805160208201fd5b63150b7a0260e01b7bffffffffffffffffffffffffffffffffffffffffffffffffffffffff1916817bffffffffffffffffffffffffffffffffffffffffffffffffffffffff191614611f9657836040517f64a0ae92000000000000000000000000000000000000000000000000000000008152600401611f8d9190612b92565b60405180910390fd5b505b5050505050565b6060611faa826115c0565b506000600660008481526020019081526020016000208054611fcb9061320a565b80601f0160208091040260200160405190810160405280929190818152602001828054611ff79061320a565b80156120445780601f1061201957610100808354040283529160200191612044565b820191906000526020600020905b81548152906001019060200180831161202757829003601f168201915b50505050509050600061205561247e565b9050600081510361206a5781925050506120ad565b60008251111561209f578082604051602001612087929190613c48565b604051602081830303815290604052925050506120ad565b6120a884612495565b925050505b919050565b60007f80ac58cd000000000000000000000000000000000000000000000000000000007bffffffffffffffffffffffffffffffffffffffffffffffffffffffff1916827bffffffffffffffffffffffffffffffffffffffffffffffffffffffff1916148061217d57507f5b5e139f000000000000000000000000000000000000000000000000000000007bffffffffffffffffffffffffffffffffffffffffffffffffffffffff1916827bffffffffffffffffffffffffffffffffffffffffffffffffffffffff1916145b8061218d575061218c826124fe565b5b9050919050565b60006002600083815260200190815260200160002060009054906101000a900473ffffffffffffffffffffffffffffffffffffffff169050919050565b808061220a5750600073ffffffffffffffffffffffffffffffffffffffff168273ffffffffffffffffffffffffffffffffffffffff1614155b1561233e57600061221a846115c0565b9050600073ffffffffffffffffffffffffffffffffffffffff168373ffffffffffffffffffffffffffffffffffffffff161415801561228557508273ffffffffffffffffffffffffffffffffffffffff168173ffffffffffffffffffffffffffffffffffffffff1614155b801561229857506122968184611445565b155b156122da57826040517fa9fbf51f0000000000000000000000000000000000000000000000000000000081526004016122d19190612b92565b60405180910390fd5b811561233c57838573ffffffffffffffffffffffffffffffffffffffff168273ffffffffffffffffffffffffffffffffffffffff167f8c5be1e5ebec7d5bd14f71427d1e84f3dd0314c0f7b2291e5b200ac8c7c3b92560405160405180910390a45b505b836004600085815260200190815260200160002060006101000a81548173ffffffffffffffffffffffffffffffffffffffff021916908373ffffffffffffffffffffffffffffffffffffffff16021790555050505050565b6123a1838383612568565b61245557600073ffffffffffffffffffffffffffffffffffffffff168373ffffffffffffffffffffffffffffffffffffffff160361241657806040517f7e27328900000000000000000000000000000000000000000000000000000000815260040161240d9190612a2b565b60405180910390fd5b81816040517f177e802f00000000000000000000000000000000000000000000000000000000815260040161244c929190613c6c565b60405180910390fd5b505050565b6124648383612629565b61247961246f611685565b6000858585611dee565b505050565b606060405180602001604052806000815250905090565b60606124a0826115c0565b5060006124ab61247e565b905060008151116124cb57604051806020016040528060008152506124f6565b806124d584612722565b6040516020016124e6929190613c48565b6040516020818303038152906040525b915050919050565b60007f01ffc9a7000000000000000000000000000000000000000000000000000000007bffffffffffffffffffffffffffffffffffffffffffffffffffffffff1916827bffffffffffffffffffffffffffffffffffffffffffffffffffffffff1916149050919050565b60008073ffffffffffffffffffffffffffffffffffffffff168373ffffffffffffffffffffffffffffffffffffffff161415801561262057508273ffffffffffffffffffffffffffffffffffffffff168473ffffffffffffffffffffffffffffffffffffffff1614806125e157506125e08484611445565b5b8061261f57508273ffffffffffffffffffffffffffffffffffffffff1661260783611648565b73ffffffffffffffffffffffffffffffffffffffff16145b5b90509392505050565b600073ffffffffffffffffffffffffffffffffffffffff168273ffffffffffffffffffffffffffffffffffffffff160361269b5760006040517f64a0ae920000000000000000000000000000000000000000000000000000000081526004016126929190612b92565b60405180910390fd5b60006126a98383600061169f565b9050600073ffffffffffffffffffffffffffffffffffffffff168173ffffffffffffffffffffffffffffffffffffffff161461271d5760006040517f73c6ac6e0000000000000000000000000000000000000000000000000000000081526004016127149190612b92565b60405180910390fd5b505050565b606060006001612731846127f0565b01905060008167ffffffffffffffff8111156127505761274f612f2d565b5b6040519080825280601f01601f1916602001820160405280156127825781602001600182028036833780820191505090505b509050600082602083010190505b6001156127e5578080600190039150507f3031323334353637383961626364656600000000000000000000000000000000600a86061a8153600a85816127d9576127d861394e565b5b04945060008503612790575b819350505050919050565b600080600090507a184f03e93ff9f4daa797ed6e38ed64bf6a1f010000000000000000831061284e577a184f03e93ff9f4daa797ed6e38ed64bf6a1f01000000000000000083816128445761284361394e565b5b0492506040810190505b6d04ee2d6d415b85acef8100000000831061288b576d04ee2d6d415b85acef810000000083816128815761288061394e565b5b0492506020810190505b662386f26fc1000083106128ba57662386f26fc1000083816128b0576128af61394e565b5b0492506010810190505b6305f5e10083106128e3576305f5e10083816128d9576128d861394e565b5b0492506008810190505b61271083106129085761271083816128fe576128fd61394e565b5b0492506004810190505b6064831061292b57606483816129215761292061394e565b5b0492506002810190505b600a831061293a576001810190505b80915050919050565b6000604051905090565b600080fd5b600080fd5b60007fffffffff0000000000000000000000000000000000000000000000000000000082169050919050565b61298c81612957565b811461299757600080fd5b50565b6000813590506129a981612983565b92915050565b6000602082840312156129c5576129c461294d565b5b60006129d38482850161299a565b91505092915050565b60008115159050919050565b6129f1816129dc565b82525050565b6000602082019050612a0c60008301846129e8565b92915050565b6000819050919050565b612a2581612a12565b82525050565b6000602082019050612a406000830184612a1c565b92915050565b600081519050919050565b600082825260208201905092915050565b60005b83811015612a80578082015181840152602081019050612a65565b60008484015250505050565b6000601f19601f8301169050919050565b6000612aa882612a46565b612ab28185612a51565b9350612ac2818560208601612a62565b612acb81612a8c565b840191505092915050565b60006020820190508181036000830152612af08184612a9d565b905092915050565b612b0181612a12565b8114612b0c57600080fd5b50565b600081359050612b1e81612af8565b92915050565b600060208284031215612b3a57612b3961294d565b5b6000612b4884828501612b0f565b91505092915050565b600073ffffffffffffffffffffffffffffffffffffffff82169050919050565b6000612b7c82612b51565b9050919050565b612b8c81612b71565b82525050565b6000602082019050612ba76000830184612b83565b92915050565b612bb681612b71565b8114612bc157600080fd5b50565b600081359050612bd381612bad565b92915050565b60008060408385031215612bf057612bef61294d565b5b6000612bfe85828601612bc4565b9250506020612c0f85828601612b0f565b9150509250929050565b600080600060608486031215612c3257612c3161294d565b5b6000612c4086828701612bc4565b9350506020612c5186828701612bc4565b9250506040612c6286828701612b0f565b9150509250925092565b7f4e487b7100000000000000000000000000000000000000000000000000000000600052602160045260246000fd5b60058110612cac57612cab612c6c565b5b50565b6000819050612cbd82612c9b565b919050565b6000612ccd82612caf565b9050919050565b612cdd81612cc2565b82525050565b60028110612cf457612cf3612c6c565b5b50565b6000819050612d0582612ce3565b919050565b6000612d1582612cf7565b9050919050565b612d2581612d0a565b82525050565b600060c082019050612d406000830189612cd4565b612d4d6020830188612d1c565b612d5a6040830187612a1c565b612d676060830186612a1c565b612d7460808301856129e8565b81810360a0830152612d868184612a9d565b9050979650505050505050565b600060208284031215612da957612da861294d565b5b6000612db784828501612bc4565b91505092915050565b60058110612dcd57600080fd5b50565b600081359050612ddf81612dc0565b92915050565b60008060408385031215612dfc57612dfb61294d565b5b6000612e0a85828601612dd0565b9250506020612e1b85828601612b0f565b9150509250929050565b600060208284031215612e3b57612e3a61294d565b5b6000612e4984828501612dd0565b91505092915050565b60028110612e5f57600080fd5b50565b600081359050612e7181612e52565b92915050565b60008060408385031215612e8e57612e8d61294d565b5b6000612e9c85828601612dd0565b9250506020612ead85828601612e62565b9150509250929050565b612ec0816129dc565b8114612ecb57600080fd5b50565b600081359050612edd81612eb7565b92915050565b60008060408385031215612efa57612ef961294d565b5b6000612f0885828601612bc4565b9250506020612f1985828601612ece565b9150509250929050565b600080fd5b600080fd5b7f4e487b7100000000000000000000000000000000000000000000000000000000600052604160045260246000fd5b612f6582612a8c565b810181811067ffffffffffffffff82111715612f8457612f83612f2d565b5b80604052505050565b6000612f97612943565b9050612fa38282612f5c565b919050565b600067ffffffffffffffff821115612fc357612fc2612f2d565b5b612fcc82612a8c565b9050602081019050919050565b82818337600083830152505050565b6000612ffb612ff684612fa8565b612f8d565b90508281526020810184848401111561301757613016612f28565b5b613022848285612fd9565b509392505050565b600082601f83011261303f5761303e612f23565b5b813561304f848260208601612fe8565b91505092915050565b600080600080608085870312156130725761307161294d565b5b600061308087828801612bc4565b945050602061309187828801612bc4565b93505060406130a287828801612b0f565b925050606085013567ffffffffffffffff8111156130c3576130c2612952565b5b6130cf8782880161302a565b91505092959194509250565b600080fd5b600080fd5b60008083601f8401126130fb576130fa612f23565b5b8235905067ffffffffffffffff811115613118576131176130db565b5b602083019150836001820283011115613134576131336130e0565b5b9250929050565b6000806000604084860312156131545761315361294d565b5b600061316286828701612b0f565b935050602084013567ffffffffffffffff81111561318357613182612952565b5b61318f868287016130e5565b92509250509250925092565b600080604083850312156131b2576131b161294d565b5b60006131c085828601612bc4565b92505060206131d185828601612bc4565b9150509250929050565b7f4e487b7100000000000000000000000000000000000000000000000000000000600052602260045260246000fd5b6000600282049050600182168061322257607f821691505b602082108103613235576132346131db565b5b50919050565b60006060820190506132506000830186612b83565b61325d6020830185612a1c565b61326a6040830184612b83565b949350505050565b7f4d61782035302500000000000000000000000000000000000000000000000000600082015250565b60006132a8600783612a51565b91506132b382613272565b602082019050919050565b600060208201905081810360008301526132d78161329b565b9050919050565b7f5061796d656e7420726571756972656400000000000000000000000000000000600082015250565b6000613314601083612a51565b915061331f826132de565b602082019050919050565b6000602082019050818103600083015261334381613307565b9050919050565b7f4e487b7100000000000000000000000000000000000000000000000000000000600052601160045260246000fd5b600061338482612a12565b91507fffffffffffffffffffffffffffffffffffffffffffffffffffffffffffffffff82036133b6576133b561334a565b5b600182019050919050565b60006133cc82612a12565b91506133d783612a12565b92508282019050808211156133ef576133ee61334a565b5b92915050565b60008190508160005260206000209050919050565b60006020601f8301049050919050565b600082821b905092915050565b6000600883026134577fffffffffffffffffffffffffffffffffffffffffffffffffffffffffffffffff8261341a565b613461868361341a565b95508019841693508086168417925050509392505050565b6000819050919050565b600061349e61349961349484612a12565b613479565b612a12565b9050919050565b6000819050919050565b6134b883613483565b6134cc6134c4826134a5565b848454613427565b825550505050565b600090565b6134e16134d4565b6134ec8184846134af565b505050565b5b81811015613510576135056000826134d9565b6001810190506134f2565b5050565b601f82111561355557613526816133f5565b61352f8461340a565b8101602085101561353e578190505b61355261354a8561340a565b8301826134f1565b50505b505050565b600082821c905092915050565b60006135786000198460080261355a565b1980831691505092915050565b60006135918383613567565b9150826002028217905092915050565b6135aa82612a46565b67ffffffffffffffff8111156135c3576135c2612f2d565b5b6135cd825461320a565b6135d8828285613514565b600060209050601f83116001811461360b57600084156135f9578287015190505b6136038582613585565b86555061366b565b601f198416613619866133f5565b60005b828110156136415784890151825560018201915060208501945060208101905061361c565b8683101561365e578489015161365a601f891682613567565b8355505b6001600288020188555050505b505050505050565b60006040820190506136886000830185612cd4565b6136956020830184612a1c565b9392505050565b7f4e6f7420746f6b656e206f776e65720000000000000000000000000000000000600082015250565b60006136d2600f83612a51565b91506136dd8261369c565b602082019050919050565b60006020820190508181036000830152613701816136c5565b9050919050565b7f4e6f74206120737562736372697074696f6e0000000000000000000000000000600082015250565b600061373e601283612a51565b915061374982613708565b602082019050919050565b6000602082019050818103600083015261376d81613731565b9050919050565b7f416c726561647920616374697661746564000000000000000000000000000000600082015250565b60006137aa601183612a51565b91506137b582613774565b602082019050919050565b600060208201905081810360008301526137d98161379d565b9050919050565b600082905092915050565b6137f583836137e0565b67ffffffffffffffff81111561380e5761380d612f2d565b5b613818825461320a565b613823828285613514565b6000601f8311600181146138525760008415613840578287013590505b61384a8582613585565b8655506138b2565b601f198416613860866133f5565b60005b8281101561388857848901358255600182019150602085019450602081019050613863565b868310156138a557848901356138a1601f891682613567565b8355505b6001600288020188555050505b50505050505050565b60006138c78385612a51565b93506138d4838584612fd9565b6138dd83612a8c565b840190509392505050565b600060208201905081810360008301526139038184866138bb565b90509392505050565b600061391782612a12565b915061392283612a12565b925082820261393081612a12565b915082820484148315176139475761394661334a565b5b5092915050565b7f4e487b7100000000000000000000000000000000000000000000000000000000600052601260045260246000fd5b600061398882612a12565b915061399383612a12565b9250826139a3576139a261394e565b5b828204905092915050565b60006139b982612a12565b91506139c483612a12565b92508282039050818111156139dc576139db61334a565b5b92915050565b600081905092915050565b50565b60006139fd6000836139e2565b9150613a08826139ed565b600082019050919050565b6000613a1e826139f0565b9150819050919050565b7f5472656173757279207472616e73666572206661696c65640000000000000000600082015250565b6000613a5e601883612a51565b9150613a6982613a28565b602082019050919050565b60006020820190508181036000830152613a8d81613a51565b9050919050565b7f5461782072657365727665207472616e73666572206661696c65640000000000600082015250565b6000613aca601b83612a51565b9150613ad582613a94565b602082019050919050565b60006020820190508181036000830152613af981613abd565b9050919050565b6000604082019050613b156000830185612a1c565b613b226020830184612a1c565b9392505050565b600081519050919050565b600082825260208201905092915050565b6000613b5082613b29565b613b5a8185613b34565b9350613b6a818560208601612a62565b613b7381612a8c565b840191505092915050565b6000608082019050613b936000830187612b83565b613ba06020830186612b83565b613bad6040830185612a1c565b8181036060830152613bbf8184613b45565b905095945050505050565b600081519050613bd981612983565b92915050565b600060208284031215613bf557613bf461294d565b5b6000613c0384828501613bca565b91505092915050565b600081905092915050565b6000613c2282612a46565b613c2c8185613c0c565b9350613c3c818560208601612a62565b80840191505092915050565b6000613c548285613c17565b9150613c608284613c17565b91508190509392505050565b6000604082019050613c816000830185612b83565b613c8e6020830184612a1c565b939250505056fea2646970667358221220661ff3b97c18f2ba44106ac10fe4e743264d3b9e8b87e6aafe8d3631e6ae658164736f6c63430008140033",
  "linkReferences": {},
  "deployedLinkReferences": {}
}